:100000000C9446000C945D000C945D000C945D0013
:100010000C945D000C945D000C945D000C945D00EC
:100020000C945D000C945D000C945D000C945D00DC
:100030000C945D000C945D000C945D000C945D00CC
:100040000C945D000C945D000C945D000C945D00BC
:100050000C945D000C945D000C945D000C945D00AC
:100060000C945D000C945D000C945D000C945D009C
:100070000C945D000C945D000C945D000C945D008C
:100080000C945D000C945D000C945D0011241FBE67
:10009000CFEFD0E4DEBFCDBF11E0A0E0B1E0ECE5F2
:1000A000F2E000E00BBF02C007900D92AE30B10746
:1000B000D9F70E9488000C942C010C940000CF9377
:1000C000DF9300D01F92CDB7DEB789837B836A832D
:1000D00089818A3031F48A819B81BC018DE00E9444
:1000E0005F0080EC90E0FC018081882F90E08072BE
:1000F00099270097B1F386EC90E02981FC012083D9
:1001000080E090E00F900F900F90DF91CF910895D5
:10011000CF93DF9300D01F92CDB7DEB781E290E09E
:10012000FC01108282E290E02FEFFC01208384E248
:1001300090E0FC01108285E290E02FEFFC0120832B
:1001400087E290E0FC01108288E290E02FEFFC0152
:1001500020838AE290E02FEFFC0120838BE290E085
:10016000FC0110821B8280E290E0FC018081282F3C
:1001700030E083E290E0FC018081882F90E0280F3E
:10018000391F86E290E0FC018081882F90E0820F89
:10019000931F9A83898306C089819A819695879552
:1001A0009A83898389819A8180349105A8F789810E
:1001B0008B838B81880F880F8B8380E290E0FC011A
:1001C0008081282F30E083E290E0FC018081882F3D
:1001D00090E0280F391F86E290E0FC018081882F93
:1001E00090E0820F931F9A83898389819A818D3849
:1001F000910518F08B8181608B8380E290E0FC0197
:100200008081282F30E086E290E0FC018081882FF9
:1002100090E0A901481B590BCA01813591059CF456
:1002200086E290E0FC018081282F30E080E290E0BF
:10023000FC018081882F90E0A901481B590BCA015D
:10024000813591051CF08B8182608B838BE290E07D
:0C0250002B81FC01208386CFF894FFCFA7
:0E025C0000000002000000005F000000000033
:00000001FF
